:100000000C943E1A0C946F1A0C946F1A0C946F1A7D
:100010000C946F1A0C946F1A0C946F1A0C946F1A3C
:100020000C946F1A0C946F1A0C946F1A0C946F1A2C
:100030000C946F1A0C946F1A0C946F1A0C946F1A1C
:100040000C946F1A0C948EC00C946F1A0C946F1A47
:100050000C946F1A0C946F1A0C94FD920C94A0924D
:100060000C946F1A0C94468A0C946F1A0C946F1AA5
:100070000C946F1A0C946F1A0C946F1A0C946F1ADC
:100080000C946F1A0C946F1A0C946F1A0C946F1ACC
:100090000C946F1A0C946F1A0C946F1A0C9449B448
:1000A0000C946F1A0C946F1A0C946F1A0C946F1AAC
:1000B0000C946F1A0C946F1A0C946F1A0C946F1A9C
:1000C0000C946F1A0C946F1A0C946F1A0C946F1A8C
:1000D0000C946F1A0C946F1A0C946F1A0C946F1A7C
:1000E0000C946F1A07340A340E34123416341A344E
:1000F00010351E342234273410352C343234363443
:100100003A343E344234103546344A345034103593
:1001100056346C346E347C347E348034823488348B
:100120008A348C348E3498349A349C349E34A4347B
:10013000A634103510351035103510351035103502
:100140001035103510351035103510351035103587
:100150001035103510351035103510351035103577
:100160001035103510351035103510351035103567
:100170001035103510351035103510351035103557
:100180001035103510351035103510351035103547
:100190001035103510351035103510351035103537
:1001A000103510351035103510351035B034D134C8
:1001B0008D4D8D4D9B4DA94DC54DD34DE14DEF4D11
:1001C000004EB74D1E9121911091149118915891A4
:1001D000259129912F91339137913D9141914591ED
:1001E00058914B914F915391CF91D491D991E391E3
:1001F000ED916692F791FF91079211921B922592D1
:1002000034923E926692489252925C92084AD73B50
:100210003BCE016E84BCBFFDC12F3D6C74319ABDD5
:1002200056833DDA3D00C77F11BED9E4BB4C3E91F9
:100230006BAAAABE000000803F05A84CCDB2D44EE8
:10024000B93836A9020C50B9918688083CA6AAAAEA
:100250002ABE000000803F00436172642065727214
:100260006F723A004E6F74205344207072696E743E
:10027000696E67002F005344207072696E74696E56
:1002800067206279746520002E0044656C6574698E
:100290006F6E206661696C65642C2046696C653AF6
:1002A000200046696C652064656C657465643A007D
:1002B0002E006F70656E206661696C65642C204647
:1002C000696C653A2000504944204175746F74751B
:1002D0006E652066696E6973686564212050757467
:1002E00020746865204B702C204B6920616E64205F
:1002F0004B6420636F6E7374616E747320696E74E7
:100300006F20436F6E66696775726174696F6E2ED8
:100310006800504944204175746F74756E6520669D
:1003200061696C6564212074696D656F7574002066
:10033000403A006F6B20543A006F6B20423A0050F5
:100340004944204175746F74756E65206661696CEF
:100350006564212054656D706572617475726520E5
:10036000746F6F206869676800204B643A20002032
:100370004B693A2000204B703A200020436C617397
:1003800069632050494420002054753A2000204BD6
:10039000753A2000206D61783A2000206D696E3A30
:1003A000200020643A200020626961733A200050E6
:1003B0004944204175746F74756E65207374617261
:1003C0007400504944204175746F74756E652066E1
:1003D00061696C65642E2042616420657874727571
:1003E000646572206E756D6265722E000D0A003FA5
:1003F0000056657273696F6E20444556000D0A0001
:10040000556E6B6E6F776E20636F6D6D616E643AC3
:100410002000544553540D0A002200556E6B6E6F38
:10042000776E20636F6D6D616E643A202200456CBB
:10043000656374726F6E6963735F74657374004192
:1004400063746976652045787472756465723A20C4
:1004500000496E76616C69642065787472756465B4
:100460007200540020423A300020423A31006F6B53
:1004700020523A0020633A0020643A0020693A0092
:1004800020703A006F6B002200556E6B6E6F776EB6
:1004900020636F6D6D616E643A2022006F70656E2F
:1004A00000545249474745524544007A5F6D617890
:1004B0003A20006F70656E005452494747455245D7
:1004C0004400795F6D61783A20006F70656E00546A
:1004D000524947474552454400785F6D696E3A205E
:1004E000005265706F7274696E6720656E64737414
:1004F0006F7020737461747573005A3A00593A0032
:1005000020436F756E7420583A2000453A005A3ADD
:1005100000593A00583A004649524D574152455FFA
:100520004E414D453A4D61726C696E20556C74694F
:100530006D616B6572323B20537072696E746572C7
:100540002F6772626C206D617368757020666F72C0
:100550002067656E36204649524D574152455F55DA
:10056000524C3A687474703A2F2F676974687562D8
:100570002E636F6D2F556C74696D616B65722050C1
:10058000524F544F434F4C5F56455253494F4E3A8A
:10059000312E30204D414348494E455F5459504516
:1005A0003A556C74696D616B6572204558545255AB
:1005B0004445525F434F554E543A310A0020423A67
:1005C0000020453A00543A003F0020573A002045A9
:1005D0003A00543A002042403A0020403A00202F8E
:1005E0000020423A00202F006F6B20543A0025690A
:1005F000206D696E2C2025692073656300456E644B
:100600002066696C65206C69737400426567696E69
:100610002066696C65206C69737400435045004323
:100620005045004350450055504554002020506C23
:10063000616E6E6572427566666572427974657345
:100640003A20002046726565204D656D6F72793ADB
:1006500020004D6172202036203230313800436F47
:100660006D70696C65643A200056657273696F6ECF
:100670002044455600207C20417574686F723A20F2
:10068000004D617220203620323031382032313A2C
:1006900033313A353300204C6173742055706461F6
:1006A0007465643A2000312E302E30004D61726C3A
:1006B000696E200020536F66747761726520526501
:1006C00073657400205761746368646F67205265B6
:1006D000736574002042726F776E206F75742052BC
:1006E00065736574002045787465726E616C205284
:1006F0006573657400506F7765725570007374612F
:100700007274004D383420582059205A2045006515
:1007100063686F3A00256920686F757273202569D8
:10072000206D696E7574657300446F6E652070721C
:10073000696E74696E672066696C65005072696ED7
:100740007465722073746F707065642064756520C1
:10075000746F206572726F72732E204669782074F0
:100760006865206572726F7220616E6420757365B2
:10077000204D39393920746F207265737461727439
:100780002E202854656D70657261747572652069DC
:10079000732072657365742E20536574206974200C
:1007A00061667465722072657374617274696E67D4
:1007B00029006F6B004E6F204C696E65204E756D81
:1007C000626572207769746820636865636B73750E
:1007D0006D2C204C617374204C696E653A20004E7C
:1007E0006F20436865636B73756D2077697468204B
:1007F0006C696E65206E756D6265722C204C61733C
:1008000074204C696E653A2000636865636B73758C
:100810006D206D69736D617463682C204C61737415
:10082000204C696E653A20004C696E65204E756DEE
:10083000626572206973206E6F74204C617374203E
:100840004C696E65204E756D6265722B312C204CA3
:10085000617374204C696E653A20004572726F7244
:100860003A004D313130006572726F7220777269D3
:1008700074696E6720746F2066696C6500205A3A4F
:100880000020593A0020583A00656E6473746F7006
:1008900073206869743A20006563686F3A00446F9A
:1008A0006E6520736176696E672066696C652E00DF
:1008B0006F6B004D32390025004272696768746EB3
:1008C000657373004C454400473238205830205936
:1008D000300047312046256920582569205925696F
:1008E0000047323820583020593000524554555274
:1008F0004E0053455454494E4753004348414E47D8
:100900004500666F72206D6174657269616C20725A
:10091000656D6F76616C0048656174696E67207003
:1009200072696E7468656164005265766572736998
:100930006E67206D6174657269616C0052656D6FE0
:100940007665206D6174657269616C0043414E4348
:10095000454C00524541445900250046616E3A20FD
:1009600000430043002500466C6F773A006D6D0030
:100970004D4154455249414C006D61746572696145
:100980006C20696E73657274696F6E00436F6F6C73
:10099000696E67207072696E746865616420666F45
:1009A000720048656174696E67207072696E746860
:1009B00065616420666F720061626F76652074689D
:1009C00065206172726F772E00796F7572206D618C
:1009D0006368696E652C0066726F6D2074686520AF
:1009E0006261636B73696465206F6600496E73654D
:1009F0007274206E6577206D6174657269616C0038
:100A000043414E43454C00524541445900466F72A4
:100A100077617264696E67206D6174657269616C7B
:100A200000636F6D6573206F757420746865206E48
:100A30006F7A7A6C6500576169742074696C6C20F8
:100A40006D6174657269616C0043414E43454C00B1
:100A5000524541445900696E204D41544552494127
:100A60004C2E54585400746F2074686520534420F1
:100A700063617264005361766564206D61746572B0
:100A800069616C73004F6B000A0A006469616D65EF
:100A90007465723D000A00666C6F773D000A00665F
:100AA000616E5F73706565643D000A006265645F36
:100AB00074656D70657261747572653D000A0074CD
:100AC000656D70657261747572653D000A006E61D6
:100AD0006D653D005B6D6174657269616C5D0A00F6
:100AE00052656164696E6720636172642E2E2E0008
:100AF000506C6561736520696E7365727420636103
:100B00007264004E6F2053442D43415244210066CD
:100B1000726F6D20746865205344206361726400B5
:100B20004C6F61646564206D6174657269616C739A
:100B3000004F6B006469616D6574657200666C6F6F
:100B4000770066616E5F7370656564006265645FFF
:100B500074656D70657261747572650074656D7031
:100B600065726174757265006E616D65005B6D61C3
:100B700074657269616C5D00466F756E64206F6E9E
:100B800020636172642E004E6F206578706F7274FE
:100B90002066696C650052656164696E67206361F7
:100BA00072642E2E2E00506C6561736520696E7321
:100BB0006572742063617264004E6F2053442D434C
:100BC00041524421005072696E74696E67207769E2
:100BD0007468205553422E2E2E00756C74696D6119
:100BE0006B65722E636F6D2F4552303700476F2053
:100BF000746F3A0058206F722059207377697463BC
:100C00006820737475636B00756C74696D616B65D6
:100C1000722E636F6D2F4552303700476F20746F0F
:100C20003A0058206F7220592073776974636820E6
:100C300062726F6B656E00756C74696D616B657265
:100C40002E636F6D2F4552303600476F20746F3A18
:100C5000005A2073776974636820737475636B003E
:100C6000756C74696D616B65722E636F6D2F455283
:100C7000303500476F20746F3A005A2073776974DB
:100C800063682062726F6B656E00756C74696D616C
:100C90006B65722E636F6D2F4552303400476F20A5
:100CA000746F3A0053616665747920636972637585
:100CB000697400756C74696D616B65722E636F6D1C
:100CC0002F4552303300476F20746F3A00486561FA
:100CD000746572206572726F7200756C74696D61F3
:100CE0006B65722E636F6D2F4552303200476F2057
:100CF000746F3A0054656D702073656E736F722067
:100D000042454400756C74696D616B65722E636F4A
:100D10006D2F4552303100476F20746F3A00546593
:100D20006D702073656E736F72004552524F522082
:100D30002D2053544F50504544004D41494E544589
:100D40004E414E4345004D4154455249414C00509F
:100D500052494E540043414E43454C005072657613
:100D60003A20005072696E7465722068616C746517
:100D7000642E206B696C6C28292063616C6C65643F
:100D800021005072696E7465722073746F707065A3
:100D9000642064756520746F206572726F72732EA3
:100DA0002046697820746865206572726F722061D0
:100DB0006E6420757365204D39393920746F207247
:100DC0006573746172742E202854656D706572614C
:100DD000747572652069732072657365742E205373
:100DE000657420697420616674657220726573741D
:100DF000617274696E6729004D32313820496E7610
:100E0000616C696420657874727564657220004D48
:100E100031303920496E76616C696420657874726E
:100E20007564657220004D31303520496E76616CF5
:100E3000696420657874727564657220004D313084
:100E40003420496E76616C696420657874727564CB
:100E500065722000456E6473746F70207374696CE2
:100E60006C207072657373656420616674657220AE
:100E70006261636B696E67206F66662E20456E64E3
:100E800073746F7020737475636B3F000000E040F3
:100E90000000E0400000E040456E6473746F702015
:100EA0006E6F74207072657373656420616674651B
:100EB0007220686F6D696E6720646F776E2E2045B3
:100EC0006E6473746F702062726F6B656E3F004565
:100ED0006E6473746F70206E6F74207072657373BC
:100EE000656420616674657220686F6D696E672045
:100EF000646F776E2E20456E6473746F702062721B
:100F00006F6B656E3F00FF01010000574300805189
:100F1000430000874300002110422063308440A535
:100F200050C660E770088129914AA16BB18CC1ADB0
:100F3000D1CEE1EFF13112100273325222B5529448
:100F400042F772D662399318837BB35AA3BDD39C00
:100F5000C3FFF3DEE36224433420040114E664C7D4
:100F600074A44485546AA54BB528850995EEE5CF50
:100F7000F5ACC58DD55336722611163006D776F6E8
:100F8000669556B4465BB77AA719973887DFF7FEA0
:100F9000E79DD7BCC7C448E5588668A77840086174
:100FA0001802282338CCC9EDD98EE9AFF9488969F0
:100FB000990AA92BB9F55AD44AB77A966A711A5088
:100FC0000A333A122AFDDBDCCBBFFB9EEB799B5840
:100FD0008B3BBB1AABA66C877CE44CC55C222C0314
:100FE0003C600C411CAEED8FFDECCDCDDD2AAD0B90
:100FF000BD688D499D977EB66ED55EF44E133E3228
:101000002E511E700E9FFFBEEFDDDFFCCF1BBF3ADF
:10101000AF599F788F8891A981CAB1EBA10CD12DCE
:10102000C14EF16FE18010A100C230E320045025D1
:101030004046706760B9839893FBA3DAB33DC31C45
:10104000D37FE35EF3B1029012F322D23235421421
:101050005277625672EAB5CBA5A89589856EF54F91
:10106000E52CD50DC5E234C324A014810466744771
:101070006424540544DBA7FAB79987B8975FE77EE5
:10108000F71DC73CD7D326F2369106B016576676C1
:1010900076154634564CD96DC90EF92FE9C899E931
:1010A000898AB9ABA94458654806782768C018E111
:1010B000088238A3287DCB5CDB3FEB1EFBF98BD885
:1010C0009BBBAB9ABB754A545A376A167AF10AD061
:1010D0001AB32A923A2EFD0FED6CDD4DCDAABD8BD1
:1010E000ADE89DC98D267C076C645C454CA23C83B1
:1010F0002CE01CC10C1FEF3EFF5DCF7CDF9BAFBA25
:10110000BFD98FF89F176E367E554E745E932EB200
:101110003ED10EF01E473120462569205A25692010
:101120005825692059256900473238205A302058FF
:1011300030205930006275696C64706C6174652E82
:10114000006F662061646A757374696E6720796FD9
:101150007572007468726F756768207468652070B6
:10116000726F6365737300492077696C6C206775D3
:1011700069646520796F750043414E43454C0043D7
:101180004F4E54494E554500473120462569205A57
:10119000256900473238205A300061206669727331
:1011A000742072756E2077697A6172642E0077619F
:1011B0006C6B20796F75207468726F756768006654
:1011C000697273742073746172747570204920772A
:1011D000696C6C004265636175736520746869733E
:1011E0002069732074686500322F323100434F4EFE
:1011F00054494E554500473120462569205A2569F6
:101200002058256920592569004732382058302058
:10121000593000676F696E6720746F20646F2074A7
:10122000686174206E6F772E0061646A7573746DE7
:10123000656E74732C207765206172650077652078
:101240006E65656420746F20646F20736F6D650038
:101250004166746572207472616E73706F7274612E
:1012600074696F6E00332F323100434F4E54494E34
:10127000554500473120462569205A300047312026
:10128000462569205825692059256900473120469F
:101290002569205A350066726F6D2074686520627A
:1012A00075696C64706C6174652E0061206D696C89
:1012B0006C696D65746572206177617900756E7413
:1012C000696C20746865206E6F7A7A6C652069732A
:1012D00000526F746174652074686520627574745F
:1012E0006F6E00342F323100434F4E54494E5545F6
:1012F00000434F4E54494E5545004731204625691D
:10130000205A300047312046256920582569205948
:10131000256900473120462569205A350066726FDD
:101320006D20746865206275696C64706C617465A9
:101330002E0069732061206D696C6C696D65746540
:101340007220617761790073637265772074696CCC
:101350006C20746865206E6F7A7A6C6500547572C3
:101360006E206C656674206275696C64706C617463
:101370006500352F323100434F4E54494E554500DC
:1013800066726F6D20746865206275696C64706C3C
:101390006174652E0069732061206D696C6C696DE4
:1013A0006574657220617761790073637265772077
:1013B00074696C6C20746865206E6F7A7A6C650055
:1013C0005475726E207269676874206275696C6406
:1013D000706C61746500362F323100434F4E5449B2
:1013E0004E554500473120462569205A3000473187
:1013F0002046256920582569205925690047312054
:10140000462569205A3500746865206275696C64E8
:10141000706C617465206C6576656C2E007061700F
:10142000657220746F2066696E652D74756E650037
:101430006E6F772075736520612073686565742011
:101440006F660052657065617420746869732073FB
:101450007465702C2062757400372F323100434F51
:101460004E54494E55450062697420726573697324
:1014700074616E63652E00756E74696C20796F758A
:10148000206665656C2061006275696C64706C61D2
:10149000746520616E64206E6F7A7A6C6500536C9F
:1014A000696465206120706170657220626574777F
:1014B00065656E00382F323100434F4E54494E550A
:1014C0004500434F4E54494E554500746865206CA5
:1014D00065667420636F726E65722E2E2E005265E3
:1014E00070656174207468697320666F7200392FAB
:1014F000323100434F4E54494E5545004732382053
:101500005A300074686520726967687420636F726E
:101510006E65722E2E2E005265706561742074689F
:10152000697320666F720031302F323100434F4EA5
:1015300054494E554500444F4E45004D3834004700
:10154000312046313230303020583131302059315D
:101550003000746F20696E73657274206D617465FC
:101560007269616C2E00746865206E6578742073F2
:1015700074657020697300746865206275696C64B5
:10158000706C617465004E6F7720746861742077A9
:1015900065206C6576656C65640031312F323100F1
:1015A000434F4E54494E554500556C74696D616BFF
:1015B0006572322E00696E7365727420696E2074D4
:1015C000686973006D6174657269616C20796F750B
:1015D0002077696C6C004E6578742C2073656C659F
:1015E0006374207468650031322F323100524541F6
:1015F00044590053656C65637420746865206D619F
:1016000074657269616C00206173206D617465722C
:1016100069616C2C0031332F3231004D41544552F9
:1016200049414C0069732074686973207269676866
:10163000743F00596F7520686176652063686F7329
:10164000656E0031342F3231004E4F005945530042
:101650006974206973207573696E672E006F662048
:101660006D6174657269616C006B6E6F7773207762
:10167000686174206B696E64004E6F7720796F75B6
:101680007220556C74696D616B6572320031352F53
:10169000323100434F4E54494E5545006D617465DB
:1016A0007269616C206C6F6164696E670070726949
:1016B0006E74686561642068656174696E67206630
:1016C0006F7200506C6561736520776169742C00DE
:1016D00031362F32310061626F7665207468652083
:1016E0006172726F772E00796F757220556C746914
:1016F0006D616B6572322C0066726F6D2074686567
:101700002072656172206F6600496E736572742085
:101710006E6577206D6174657269616C0031372F79
:10172000323100434F4E54494E5545004C6F616471
:10173000696E67206D6174657269616C2E2E2E0072
:1017400031382F32310066726F6D206E6F7A7A6C8D
:10175000652E2E2E006D6174657269616C2065784E
:10176000697473005075736820627574746F6E20AD
:101770007768656E0031392F323100434F4E54493E
:101780004E5545006D616B652061203344205072D9
:10179000696E74210049276D207265616479206C3F
:1017A000657427730032302F323100415245205981
:1017B0004F552052454144593F00746F2070726963
:1017C0006E742069742100616E6420707265737399
:1017D0002074686520627574746F6E006F6E20747B
:1017E00068652053442D636172640053656C6563C2
:1017F000742061207072696E742066696C650032B5
:10180000312F3231004C45542753205052494E5409
:101810000052656164696E6720636172642E2E2ECA
:101820000032312F323100796F757220556C746936
:101830006D616B6572322E2E2E00746861742063A8
:10184000616D65207769746800506C65617365200F
:10185000696E736572742053442D63617264003243
:10186000312F3231004578706F727420746F2053BD
:101870004400496D706F72742066726F6D2053441E
:1018800000437573746F6D697A65003C205245544E
:1018900055524E00250046616E3A20004300430039
:1018A0002500466C6F773A006D6D004C6F61647374
:1018B00020616C6C206D6174657269616C7300539A
:1018C0006176657320616C6C206D6174657269610D
:1018D0006C73004D6F646966792074686520736568
:1018E0007474696E6773004D4154455249414C0010
:1018F00053656C6563746564206D617465726961BC
:101900006C3A004F4B00466C6F772025003F3F3FFD
:101910000053746F72652061732070726573657413
:101920000046616E004469616D65746572004865CA
:1019300061746564206275696C64706C61746500C3
:1019400054656D7065726174757265003C20524516
:101950005455524E00250025006D6D004300430094
:1019600025004D6174657269616C20666C6F77004B
:10197000250046616E207370656564006D6D004DD5
:101980006174657269616C204469616D657465722A
:101990000043004275696C64706C61746520546525
:1019A0006D702E00430054656D70657261747572C0
:1019B00065004D4154455249414C003C205245542C
:1019C00055524E004E6577207072657365740050F5
:1019D0005245534554530043504500414253005033
:1019E0004C41004D38340047323800473238205AD5
:1019F00030004732382058302059300047312046D7
:101A000025692045300047393220452569004D348D
:101A10003031003C204241434B003C20524554555C
:101A2000524E004E6F20696E666F20617661696C60
:101A300061626C65006D006D004D61746572696175
:101A40006C3A200054696D653A20003B4D41544585
:101A50005249414C3A003B54494D453A00466F6C5F
:101A60006465720025004272696768746E657373FD
:101A70000025004D6174657269616C20666C6F773A
:101A800000250046616E2073706565640025005076
:101A900072696E742073706565640054554E45001C
:101AA00052657472616374206C656E677468003F80
:101AB0003F3F0052657472616374207370656564A2
:101AC000003C2052455455524E006D6D2F73656396
:101AD000006D6D006D6D2F736563005265747261EA
:101AE0006374207370656564006D6D005265747277
:101AF000616374206C656E6774680052455452418E
:101B00004354494F4E004D36303120583520593519
:101B1000205A2569204C25690020746F6F206C6F56
:101B20006E6720657874727573696F6E2070726568
:101B300076656E7465640020636F6C6420657874EC
:101B4000727573696F6E2070726576656E74656408
:101B5000006563686F3A0052455455524E00414447
:101B600056414E434544004255494C442D7C504C0F
:101B7000415445003F3F3F00466163746F727920D6
:101B800072657365740052756E74696D6520737447
:101B90006174730056657273696F6E004D6F74697E
:101BA0006F6E2073657474696E677300526574722A
:101BB000616374696F6E2073657474696E67730016
:101BC0005365742066616E207370656564004D6FA7
:101BD0007665206D6174657269616C00496E73652C
:101BE0007274206D6174657269616C005261697311
:101BF00065206275696C64706C617465004C6F7708
:101C00006572206275696C64706C61746500486F00
:101C10006D65206865616400486561747570206257
:101C200075696C64706C6174650048656174757089
:101C3000206E6F7A7A6C65004C454420736574742D
:101C4000696E6773003C2052455455524E005665EC
:101C50007273696F6E204445560025004300432F80
:101C6000004300432F0025004732382058302059C8
:101C70003000250046616E20737065656400473151
:101C800020462569205825692059256900473238A2
:101C90002058205900473120462569205A34300009
:101CA000473238205A004D383400473238205A0025
:101CB0004D383400473238205820590047323820F8
:101CC0005A00414456414E434544004300432F00CF
:101CD000436C69636B20746F2072657475726E005B
:101CE0004E6F7A7A6C652074656D7065726174757B
:101CF00072653A004300432F00436C69636B2074A4
:101D00006F2072657475726E00526F746174652015
:101D1000746F2065787472756465004E6F7A7A6CA2
:101D2000652074656D70657261747572653A004303
:101D300000432F00436C69636B20746F20726574DD
:101D400075726E004275696C64706C6174652074A4
:101D5000656D702E3A0056657273696F6E2044454A
:101D600056004D6172202036203230313820323119
:101D70003A33313A35340052657475726E006D0035
:101D8000204D61743A003A005072696E74696E6752
:101D90003A003A004D616368696E65206F6E206697
:101DA0006F723A0052657475726E00746F206465CC
:101DB0006661756C743F0052657365742065766565
:101DC00072797468696E67004E4F0059455300522E
:101DD000657472616374206C656E677468003F3F60
:101DE0003F005265747261637420737065656400AE
:101DF0003C2052455455524E006D6D2F7365630063
:101E00006D6D006D6D2F7365630052657472616353
:101E100074207370656564006D6D00526574726145
:101E20006374206C656E6774680052455452414378
:101E300054494F4E003F3F3F0043757272656E74C8
:101E400020450043757272656E74205A00437572A6
:101E500072656E7420582F59004D6178207370653B
:101E60006564205A004D617820737065656420595F
:101E7000004D6178207370656564205800582F59B3
:101E8000204A65726B00416363656C6572617469B9
:101E90006F6E003C2052455455524E006D41006D0E
:101EA00041006D41006D6D2F736563006D6D2F7383
:101EB0006563006D6D2F736563006D6D2F736563D2
:101EC000006D6D2F7365635E32006D410043757266
:101ED00072656E742045006D410043757272656EC7
:101EE00074205A006D410043757272656E742058FB
:101EF0002F59006D6D2F736563004D6178207370ED
:101F0000656564205A006D6D2F736563004D6178BF
:101F10002073706565642059006D6D2F73656300D3
:101F20004D61782073706565642058006D6D2F7366
:101F3000656300582F59204A65726B0030306D6D13
:101F40002F7365635E3200416363656C6572617413
:101F5000696F6E004D4F54494F4E003F3F3F002088
:101F6000476C6F77207768656E20646F6E65002020
:101F70004F6E207768696C65207072696E74696E47
:101F8000670020416C77617973204F6666002041BD
:101F90006C77617973204F6E004272696768746E66
:101FA000657373003C2052455455524E0025005332
:101FB000657474696E67732053746F726564002072
:101FC00044002049002020204D3330312050005063
:101FD00049442073657474696E67733A00205A002F
:101FE00020590020204D323036205800486F6D6552
:101FF000206F666673657420286D6D293A00204550
:1020000000205A0020580020420020540020204D7B
:10201000323035205300416476616E63656420760A
:1020200061726961626C65733A20533D4D696E203F
:10203000666565647261746520286D6D2F73292C47
:1020400020543D4D696E2074726176656C20666522
:1020500065647261746520286D6D2F73292C204290
:102060003D6D696E696D756D207365676D656E7424
:102070002074696D6520286D73292C20583D6D6191
:1020800078696D756D205859206A65726B20286DCE
:102090006D2F73292C20205A3D6D6178696D756D07
:1020A000205A206A65726B20286D6D2F73292C20B1
:1020B00020453D6D6178696D756D2045206A6572BA
:1020C0006B20286D6D2F73290020540020204D3285
:1020D0003034205300416363656C65726174696FCD
:1020E0006E3A20533D616363656C65726174696F1C
:1020F0006E2C20543D726574726163742061636359
:10210000656C65726174696F6E00204500205A002D
:1021100020590020204D3230312058004D6178691F
:102120006D756D20416363656C65726174696F6E76
:1021300020286D6D2F7332293A00204500205A0067
:1021400020590020204D3230332058004D617869ED
:102150006D756D2066656564726174657320286DA8
:102160006D2F73293A00204500205A002059002085
:10217000204D393220580053746570732070657299
:1021800020756E69743A00563031300053746F72A6
:1021900065642073657474696E6773207265747208
:1021A00069657665640048617264636F6465642084
:1021B00044656661756C742053657474696E6773E9
:1021C000204C6F61646564006563686F3A002200AB
:1021D000656E717565696E672022002200656E71FB
:1021E0007565696E672022000000574300805143E7
:1021F0000000874300000000000000000000000015
:10220000000000000080514300008743202D20493A
:102210006E76616C6964206578747275646572208D
:102220006E756D62657220210000000000180701C4
:1022300000A807140030082800B8083C00380950EE
:1022400000C0096400480A7800C80A8C00480BA046
:1022500000C80BB400480CC800C80CDC00400DF0EE
:1022600000C00D0401380E1801B00E2C01280F40DB
:1022700001A00F54011810680188107C0100119012
:10228000013013F401481558024017BC02281920E8
:1022900003F01A8403A81CE803401E4C043A2045AE
:1022A00078747275646572207377697463686564A5
:1022B000206F66662E204D415854454D5020747253
:1022C000696767657265642021003A2045787472F9
:1022D00075646572207377697463686564206F66DE
:1022E000662E204D494E54454D50207472696767E3
:1022F0006572656420210054656D70657261747546
:102300007265206865617465642062656420737716
:10231000697463686564206F66662E204D41585469
:10232000454D50207472696767657265642021218C
:10233000004572726F723A000000210024002700ED
:102340002A002D00300033000101000004010701C4
:102350000A0100002200250028002B002E00310079
:10236000340002010000050108010B010505050507
:10237000070508080808020202020A0A08080404FD
:10238000040401010101010101010303030303032B
:102390000303040707070C0C0C0C0C0C0C0C0202BA
:1023A000020206060606060606060B0B0B0B0B0BB7
:1023B0000B0B010210202008081020401020408044
:1023C00002010201080402010102040810204080F9
:1023D0008040201008040201800402018040201087
:1023E00008040201080402010102040810204080D0
:1023F000010204081020408000000A0B02090C0DA5
:102400000E080703040100000000000000000000A7
:1024100000000000000000000000000000000000BC
:102420000000000012111000000000000000000079
:1024300000000000000000000000000000004361F8
:102440006E6E6F7420656E74657220737562646958
:10245000723A200053442043415244004731204601
:102460003132303030205835205931300047323841
:10247000003B464C41564F523A556C746947436F86
:102480006465003B464C41564F523A556C7469475F
:10249000436F6465004E6F2066696C657320666FDC
:1024A000756E6421004F4B004F4B005265616469AB
:1024B0006E6720636172642E2E2E00506C6561730E
:1024C0006520696E736572742063617264004E6F7B
:1024D0002053442D43415244210050726570617273
:1024E000696E6720746F207072696E743A00486577
:1024F0006174696E672075702E2E2E0041424F5216
:10250000540054554E450054696D65206C656674E1
:102510000054696D65206C65667420756E6B6E6F16
:10252000776E004300430048656174696E672062FE
:1025300075696C64706C61746500430043004865A4
:102540006174696E67005072696E74696E673A00F3
:1025500050415553450054554E450054554E450085
:102560004348414E47457C4D4154455249414C00FA
:10257000524553554D457C5052494E5400756C742C
:10258000696D616B65722E636F6D2F455230380037
:10259000476F20746F3A0072656164696E672053FB
:1025A000442D6361726421004572726F72207768F6
:1025B000696C650052455455524E20544F204D4190
:1025C000494E006F66207072696E74696E67206193
:1025D000726561005472696564207072696E746915
:1025E0006E67206F7574004552524F523A00524543
:1025F0005455524E20544F204D41494E0066726F43
:102600006D2074686520736C696365722E00736554
:102610007474696E6720776974682073657474696F
:102620006E67006F76657272696465206D616368BC
:10263000696E6500546869732066696C6520776906
:102640006C6C0043414E43454C00434F4E54494E41
:1026500055450041626F727420746865207072691C
:102660006E743F004E4F0059455300430043200015
:102670005072696E74657220636F6F6C696E67204B
:10268000646F776E004241434B20544F204D454EBE
:102690005500746865207072696E742E00596F75EC
:1026A0002063616E2072656D6F7665005072696E91
:1026B000742066696E6973686564004241434B200B
:1026C000544F204D454E55004C4544204272696799
:1026D00068746E6573730052657472616374696FB8
:1026E0006E004D6174657269616C20666C6F770075
:1026F00046616E207370656564004275696C647034
:102700006C6174652074656D702E0054656D706524
:102710007261747572650053706565640041626F23
:102720007274003C2052455455524E00250025003D
:102730002500430043004300430025004300432F8E
:1027400000436C69636B20746F2072657475726EE0
:10275000004E6F7A7A6C652074656D706572617475
:102760007572653A007C3C3E5E2B3D3F2F5B5D3BC6
:102770002C2A225C00000000000000005F00000026
:1027800007000700147F147F14242A7F2A122313C2
:1027900008646236495522500005030000001C22DF
:1027A00041000041221C00082A1C2A0808083E0893
:1027B00008005030000008080808080060600000A9
:1027C00020100804023E5149453E00427F4000422D
:1027D000615149462141454B311814127F1027455C
:1027E0004545393C4A494930017109050336494993
:1027F0004936064949291E00363600000056360083
:102800000000081422411414141414412214080066
:102810000201510906324979413E7E1111117E7F34
:10282000494949363E414141227F4141221C7F496D
:102830004949417F090901013E414151327F080860
:10284000087F00417F41002040413F017F08142262
:10285000417F404040407F0204027F7F0408107F98
:102860003E4141413E7F090909063E4151215E7FBB
:1028700009192946464949493101017F01013F4073
:1028800040403F1F2040201F7F2018207F631408F6
:1028900014630304780403615149454300007F41F8
:1028A00041020408102041417F000004020102049B
:1028B0004040404040000102040020545454787FBE
:1028C000484444383844444420384444487F3854C9
:1028D000545418087E090102081454543C7F08041B
:1028E000047800447D40002040443D00007F1028D3
:1028F0004400417F40007C041804787C080404787C
:1029000038444444387C14141408081414187C7C8B
:10291000080404084854545420043F4440203C40D8
:1029200040207C1C2040201C3C4030403C4428106F
:1029300028440C5050503C4464544C4400083641E8
:102940000000007F0000004136080008082A1C082B
:10295000081C2A08082073656300206D696E00203A
:10296000686F75720020686F757273006275747499
:102970006F6E20746F20636F6E74696E756500559D
:102980006C74696D616B6572212050726573732080
:102990007468650073746172747570206F66207955
:1029A0006F75720057656C636F6D6520746F20746E
:1029B000686520666972737400312F323100434FAD
:1029C0004E54494E55450053442063617264206F54
:1029D0006B006F70656E526F6F74206661696C6515
:1029E0006400766F6C756D652E696E697420666122
:1029F000696C6564004572726F723A0053442069D5
:102A00006E6974206661696C006563686F3A004D99
:102A10003234004D3233202573006175746F25699F
:102A20002E6700801506060606FEFEFEFEFC000070
:102A30000000000000FCFEFEFEFC0000000EFEFE9A
:102A4000FEFE0000E0FCFEFEFCE0E0000000CECE5A
:102A5000CE000000C0C0C0C0C0C0800000000000A8
:102A60000080C0C0800000000000008080C0C0C0A6
:102A7000C0C0C0C080800000000006FEFEFEFE0058
:102A800000000080C0C0C00000000000008080C0C6
:102A9000C0C080808000000000C0C0C0C00080C0F6
:102AA000C0C0C08000000000007FFFFFFFFF80006B
:102AB0000000000080FFFFFFFFFF00000000FFFF9D
:102AC000FFFF000000FFFFFFFF0000000000FFFF0E
:102AD000FF00000081F1FFFF3F0F3FFFFCF0F0FC23
:102AE000FF3F0F3FFFFEF880000000C1E1F1F171F0
:102AF00031010183FFFFFFFC000000FFFFFFFF002B
:102B00000C3EFFFFF7C301000000FCFEFF8703112E
:102B10003131333F3F3F1E000001FFFFFFFF07033E
:102B200001010101000000000000010307070F0F71
:102B30000F0F0F0F0F0707070F0F06000000070FFB
:102B40000F07000000070F0F0700000000000F0F25
:102B50000F0000060F0F070100000001070F0F070D
:102B60000100000001070F0F06000003070F0F0E02
:102B70000E060703070F0F07000000070F0F0700DF
:102B8000000000030F0F0F060000000307070F0EE1
:102B90000E0E0E0E0E06000000000F0F0F0F0000AD
:102BA000000000000043616E6E6F74206F70656EF0
:102BB000207375626469720057726974696E672068
:102BC000746F2066696C653A20002E006F70656E28
:102BD000206661696C65642C2046696C653A20004A
:102BE0002E006F70656E206661696C65642C2046EE
:102BF000696C653A200046696C652073656C656395
:102C0000746564002053697A653A200046696C65F2
:102C1000206F70656E65643A20002E006F70656EDF
:102C2000206661696C65642C2046696C653A2000F9
:102C300024F4D43050C38E20C2A24017828B70116E
:102C4000127A910D816CD90AA861E108C75866070C
:102C5000615143061E4B5D05C145A7041A4111048D
:102C6000093D9803713931034036DB026533910227
:102C7000D4305402802E1D02632CEE01752AC5014A
:102C8000B028A001102781018F2564012B244B015E
:102C9000E0223401AC211F018D200D01801FFC00BA
:102CA000841EED00971DDF00B81CD200E61BC60095
:102CB000201BBC00641AB200B219A8000A19A000B7
:102CC0006A189900D117910040178B00B51684003F
:102CD00031167E00B31579003A157300C7146F00E2
:102CE00058146A00EE1366008813630025135E0013
:102CF000C7125B006C12570015125400C11151002D
:102D000070114F0021114B00D61049008D10470063
:102D10004610440002104200C00F4000800F3E00E9
:102D2000420F3C00060F3B00CB0E3800930E3700DD
:102D30005C0E3500270E3400F30D3200C10D31005A
:102D4000900D3000600D2E00320D2D00050D2C0071
:102D5000D90C2B00AE0C2900850C29005C0C270037
:102D6000350C27000E0C2600E80B2400C40B2400B1
:102D7000A00B23007D0B23005A0B2100390B2100EF
:102D8000180B2000F80A1F00D90A1E00BB0A1E00FB
:102D90009D0A1D00800A1D00630A1C00470A1B00D3
:102DA0002C0A1B00110A1A00F7091A00DD09190084
:102DB000C4091900AB091900920917007B09180012
:102DC000630917004C091600360916002009160081
:102DD0000A091500F5081500E0081400CC081400D5
:102DE000B8081400A4081400900813007D0812000D
:102DF0006B0813005808120046081200340811002E
:102E0000230811001208110001081100F00710003A
:102E1000E0071000D0071000C0071000B0070F0037
:102E2000A107100091070E0083070F0074070F0021
:102E300065070E0057070E0049070E003B070D00FF
:102E40002E070E0020070D0013070D0006070D00CA
:102E5000F9060C00ED060D00E0060C00D4060C008F
:102E6000C8060C00BC060C00B0060C00A4060B0043
:102E700099060C008D060B0082060B0077060B00EE
:102E80006C060B0061060A0057060B004C060A0090
:102E900042060A0038060A002E060A0024060A0026
:102EA0001A060A001006090007060A00FD050900B7
:102EB000F4050900EB050900E2050900D905090040
:102EC000D0050900C7050900BE050900B5050800C1
:102ED000AD050800A50509009C050800940508003B
:102EE0008C050800840508007C05080074050800AE
:102EF0006C050700650508005D050700560508001C
:102F00004E05070047050700400508003805070083
:102F1000310507002A050700230507001C050600E8
:102F2000160507000F050700080506000205070043
:102F3000FB040600F5040700EE040600E8040600A2
:102F4000E2040700DB040600D5040600CF040600F7
:102F5000C9040600C3040600BD040600B704060049
:102F6000B1040500AC040600A6040600A004050098
:102F70009B04060095040500900406008A040500E1
:102F800085040500800406007A0405007504050028
:102F9000700405006B04050066040500610405006B
:102FA0005C04050057040500520405004D040500AB
:102FB00048040500430405003E0404003A040500EB
:102FC00035040500300404002C0405002704040027
:102FD000230405001E0404001A040400160405005E
:102FE000110404000D040400090405000404040095
:102FF00000040400FC030400F8030400F4030400CC
:10300000F0030400EC030400E8030400E4030400FC
:10301000E0030400DC030400D8030400D40304002C
:10302000D0030400CC030400C8030300C50303005D
:1030300024F404D9201BC40C5C0E9804C4095F025C
:1030400065077101F405F900FB04B300480487002B
:10305000C10369005803550003034500BE023A004E
:103060008402310053022A002902250004022000B4
:10307000E4011C00C8011900AF01170098011400F9
:1030800084011300710110006101100051010E0054
:1030900043010D0036010B002B010B0020010B003A
:1030A000150109000C01090003010800FB000800DC
:1030B000F3000800EB000700E4000600DE00060055
:1030C000D8000600D2000600CC000500C7000500AD
:1030D000C2000500BD000400B9000400B5000400F2
:1030E000B1000400AD000400A9000400A500030025
:1030F000A20003009F0004009B000300980003004F
:103100009500020093000300900003008D00020070
:103110008B00030088000200860002008400030088
:10312000810002007F0002007D0002007B0002009F
:1031300079000200770001007600020074000200AE
:1031400072000100710002006F0002006D000100BA
:103150006C0002006A0001006900020067000100C3
:1031600066000100650001006400020062000100C9
:1031700061000100600001005F0002005D000100CD
:103180005C0001005B0001005A00010059000100D1
:1031900058000100570001005600010055000100D1
:1031A00054000100530000005300010052000100D0
:1031B00051000100500001004F0001004E000000CE
:1031C0004E0001004D0001004C0001004B000000CA
:1031D0004B0001004A0001004900010048000000C6
:1031E00048000100470001004600000046000100C1
:1031F00045000000450001004400010043000000BC
:1032000043000100420000004200010041000000B4
:1032100041000100400001003F0000003F000100AC
:103220003E0000003E0001003D0000003D000100A6
:103230003C0000003C0000003C0001003B0000009E
:103240003B0001003A0000003A0001003900000094
:10325000390001003800000038000000380001008B
:103260003700000037000100360000003600000083
:103270003600010035000000350000003500010077
:10328000340000003400000034000100330000006E
:103290003300000033000100320000003200000063
:1032A0003200010031000000310000003100010057
:1032B0003000000030000000300001002F0000004E
:1032C0002F0000002F0000002F0001002E00000042
:1032D0002E0000002E0001002D0000002D00000037
:1032E0002D0000002D0001002C0000002C0000002B
:1032F0002C0000002C0001002B0000002B0000001F
:103300002B0000002B0001002A0000002A00000012
:103310002A0000002A000100290000002900000006
:1033200029000000290000002900010028000000F9
:1033300028000000280000002800000028000100EC
:1033400027000000270000002700000027000000E1
:1033500027000100260000002600000026000000D3
:1033600026000000260001002500000025000000C6
:1033700025000000250000002500000025000100B8
:1033800024000000240000002400000024000000AD
:10339000240001002300000023000000230000009F
:1033A0002300000023000000230000002300010090
:1033B0002200000022000000220000002200000085
:1033C0002200000022000100210000002100000076
:1033D0002100000021000000210000002100000069
:1033E000210001002000000020000000200000005B
:1033F000200000002000000020000000200000004D
:10340000200001001F0000001F0000001F0000003E
:103410001F0000001F0000001F0000001F0001002F
:103420001E0000001E0000001E0000001E00000024
:10343000526573656E643A20006F6B004E414E49D1
:103440004E495459494E46CDCCCC3D0AD7233C1762
:10345000B7D13877CC2B329595E6241FB14F0A00AF
:103460000020410000C84200401C4620BCBE4CCA9F
:103470001B0E5AAEC59D740025D704D711241FBE5C
:10348000CFEFD1E2DEBFCDBF00E00CBF13E0A0E084
:10349000B2E0E0ECF7EC01E00BBF02C007900D9248
:1034A000AA31B107D9F729E1AAE1B3E001C01D9221
:1034B000A533B207E1F71AE1CDE3DAE100E006C097
:1034C00021970109802FFE010E94F7D7CC33D10745
:1034D00080E00807A9F70E94AACA0C94CEE30C94D6
:1034E00000002F923F924F925F926F927F928F9245
:1034F0009F92AF92BF92CF92DF92EF92FF920F9383
:103500001F93CF93DF93CDB7DEB7CB56D1090FB65C
:10351000F894DEBF0FBECDBF1092960B87E40E94D9
:103520001C89F82E882309F419C40E9442890E943C
:1035300067D96A30710509F48EC084F46230710570
:1035400081F124F477FF23C00C9476356330710544
:1035500081F164307105C1F10C9476356A357105DD
:1035600009F4BCC354F46B30710509F40AC16C3121
:10357000710509F47CC10C9476356B35710509F43D
:10358000B1C36C35710509F4B2C30C9476358091E2
:10359000F803811106C00E94BFC80E9403C80C94A2
:1035A000523B8091F803811104C00E9423CA81E03C
:1035B00007C08091F803811107C00E9423CA80E0F0
:1035C0000E9400550C94523B80E50E941C89882380
:1035D00039F00E9442890E946CD96B017C0103C0C2
:1035E000C12CD12C760183E50E941C89882361F0CF
:1035F0000E94428920E030E04AE754E40E94EADB7E
:103600000E946CD96B017C010E9431990E949492B6
:10361000C60ED71EE81EF91E0E94949260934307BF
:1036200070934407809345079093460781E0809309
:10363000960B0E9494926C157D058E059F0510F0E7
:103640000C9476350E9437960E945C540E94394D46
:103650000E94E570EECF80912A0A81110C94763594
:103660008091B70B9091B80BA091B90BB091BA0BA8
:103670008093080A9093090AA0930A0AB0930B0A50
:103680008091BB0B9091BC0BA091BD0BB091BE0B78
:1036900080930C0A90930D0AA0930E0AB0930F0A20
:1036A0008091BF0B9091C00BA091C10BB091C20B48
:1036B0008093100A9093110AA093120AB093130AF0
:1036C000C090C30BD090C40BE090C50BF090C60B1C
:1036D000E091DF0B24E0E29FF0011124E552F44F6A
:1036E00020813181428153816091250270912602AF
:1036F00080912702909128020E94FFD89B01AC0183
:10370000C701B6010E9422D89B01AC016093140A44
:103710007093150A8093160A9093170A80901A02E4
:1037200090901B02A0901C02B0901D02809121027B
:1037300090912202A0912302B091240280931A0258
:1037400090931B02A0931C02B0931D02C701B60107
:103750000E9422D860932119709322198093231913
:103760009093241981E080932A0A0E9403C88092D2
:103770001A0290921B02A0921C02B0921D020C949D
:10378000763580912A0A882311F40C94763580913D
:10379000B70B9091B80BA091B90BB091BA0B809375
:1037A000080A9093090AA0930A0AB0930B0A809121
:1037B000BB0B9091BC0BA091BD0BB091BE0B809345
:1037C0000C0A90930D0AA0930E0AB0930F0A8091F1
:1037D000BF0B9091C00BA091C10BB091C20B809315
:1037E000100A9093110AA093120AB093130A209121
:1037F0002119309122194091231950912419609177
:10380000C30B7091C40B8091C50B9091C60B0E94A5
:1038100023D86093140A7093150A8093160A909324
:10382000170AC0901A02D0901B02E0901C02F09080
:103830001D028091520290915302A0915402B091C6
:10384000550280931A0290931B02A0931C02B0931E
:103850001D0210922A0A0E9403C8C0921A02D09236
:103860001B02E0921C02F0921D020C94763585E05A
:103870008093960B80911A0290911B02A0911C02DA
:10388000B0911D0280931C0390931D03A0931E030F
:10389000B0931F0380911F029091200290931B030D
:1038A00080931A0384E690E09093200280931F0295
:1038B0000E94949260934307709344078093450756
:1038C0009093460711E0109315028091B70B9091E9
:1038D000B80BA091B90BB091BA0B8093080A9093E2
:1038E000090AA0930A0AB0930B0A8091BB0B90912E
:1038F000BC0BA091BD0BB091BE0B80930C0A9093B2
:103900000D0AA0930E0AB0930F0A8091BF0B9091FD
:10391000C00BA091C10BB091C20B8093100A909381
:10392000110AA093120AB093130A8091C30B9091CD
:10393000C40BA091C50BB091C60B8093140A909351
:10394000150AA093160AB093170A10921A02109241
:103950001B0210921C0210921D0288E50E941C8915
:10396000882311F080E009C089E50E941C8981113B
:10397000F9CF8AE50E941C8981278093040288235D
:1039800009F4F4C01092B70B1092B80B1092B90B57
:103990001092BA0B1092BB0B1092BC0B1092BD0B85
:1039A0001092BE0B1092BF0B1092C00B1092C10B65
:1039B0001092C20B0E94D4B980E090E4A1EAB3EC6B
:1039C0008093080A9093090AA0930A0AB0930B0AFD
:1039D00080E090E2ADE9B3E480930C0A90930D0A85
:1039E000A0930E0AB0930F0A80E090E8AAECB3E42B
:1039F0008093100A9093110AA093120AB093130AAD
:103A000080E090E8ABEBB5E480931A0290931B0240
:103A1000A0931C02B0931D024FEDC42E4BE0D42E98
:103A2000E12CF12C08EC12E424E13AE040E15AE008
:103A30006CE07AE088E09AE00E946C720E94319912
:103A40000E9409C780E090E00E94E48881E090E055
:103A50000E94E48882E090E00E94E4880E94D4B949
:103A60008091B70B9091B80BA091B90BB091BA0BA4
:103A70008093080A9093090AA0930A0AB0930B0A4C
:103A80008091BB0B9091BC0BA091BD0BB091BE0B74
:103A900080930C0A90930D0AA0930E0AB0930F0A1C
:103AA0008091BF0B9091C00BA091C10BB091C20B44
:103AB0008093100A9093110AA093120AB093130AEC
:103AC00020E030E040E752E460911A0270911B025E
:103AD00080911C0290911D020E94FFD87B018C01F5
:103AE00024E13AE040E15AE06CE07AE088E09AE0D4
:103AF0000E946C7210921A0210921B0210921C0209
:103B000010921D020E9431990E9409C78091080AF3
:103B10009091090AA0910A0AB0910B0A8093B70B01
:103B20009093B80BA093B90BB093BA0B80910C0A89
:103B300090910D0AA0910E0AB0910F0A8093BB0BD1
:103B40009093BC0BA093BD0BB093BE0B8091100A59
:103B50009091110AA091120AB091130A8093BF0BA1
:103B60009093C00BA093C10BB093C20B8091040241
:103B700081110C947B358AE50E941C8981110C947B
:103B80007B358091040281110C94813588E50E9477
:103B90001C89882331F089E50E941C8981110C94CD
:103BA00081358091040281110C944D3688E50E9484
:103BB0001C8981110C944D368091040281110C9462
:103BC000533689E50E941C8981110C94533688E58F
:103BD0000E941C898823D1F00E943789672B682BAB
:103BE000692BA1F00E94428920911C0A30911D0A84
:103BF00040911E0A50911F0A0E9423D86093B70B70
:103C00007093B80B8093B90B9093BA0B89E50E941F
:103C10001C898823D1F00E943789672B682B692B78
:103C2000A1F00E9442892091200A3091210A4091FE
:103C3000220A5091230A0E9423D86093BB0B7093F1
:103C4000BC0B8093BD0B9093BE0B8AE50E941C8930
:103C50008823D1F00E943789672B682B692BA1F04C
:103C60000E9442892091240A3091250A4091260A17
:103C70005091270A0E9423D86093BF0B7093C00B0A
:103C80008093C10B9093C20B0E94D4B9109215027D
:103C900080911C0390911D03A0911E03B0911F03FE
:103CA00080931A0290931B02A0931C02B0931D02F2
:103CB00080911A0390911B039093200280931F021E
:103CC0000E94949260934307709344078093450742
:103CD000909346070E9409C70C94763510922A19D2
:103CE0000C94763581E080932A190C94763585E41E
:103CF0000E941C89811102C00E94319921EFC22EBD
:103D000022E0D22E37EBE32E3BE0F32E10E0D6017B
:103D10008D916D010E941C898823C1F0133061F4DC
:103D20000E944289F701608371838283938383ECCD
:103D30009BE00E94CEC70AC00E944289D7016D93C2
:103D40007D938D939C9313970E94D4B91F5FB4E029
:103D5000EB0EF11C1430D9F60C9476358DE40E94EC
:103D60001C89882311F40C9402330E9442890E941A
:103D700067D96C38710509F403C40CF0AAC060352A
:103D8000710509F44AC60CF04CC06731710509F49D
:103D9000F1C134F56231710509F44CC69CF477FF2A
:103DA00002C00C947635623071050CF475C1613136
:103DB000710511F00C947635159846984398409803
:103DC0000C9476356531710509F4C8C10CF0CAC18F
:103DD0006431710511F00C947635EBE0F6E075C1B5
:103DE0006B31710509F403C23CF46931710509F4C2
:103DF000ECC10CF4D5C1EDC16E31710509F497C267
:103E000034F46C31710509F460C20C9476356F316D
:103E1000710509F4F8C26A32710509F450C30C94B3
:103E200076356A36710509F483C524F56435710564
:103E300009F400C654F46235710509F4F2C50CF0BA
:103E4000F4C50A9A12980C9476356C35710509F40C
:103E500044C634F46535710509F424C60C947635EE
:103E60006836710509F465C36936710509F4A4C3A0
:103E70000C9476356337710509F4B5C68CF46D364C
:103E8000710509F43FC46237710509F4CDC66B367C
:103E9000710511F00C9476351092730A0C947635F6
:103EA0006737710509F489C734F46537710509F47A
:103EB000A9C60C9476356837710509F47AC7693755
:103EC000710511F00C94763581E0809315020C9405
:103ED0007635643FE1E07E0711F40C94CC2D0CF0B4
:103EE0005FC0613D710511F40C94832844F56C3C6E
:103EF000710511F40C94902774F4693C710509F470
:103F0000CFC76B3C710509F4EDC76E3B710511F02D
:103F10000C94763550C46E3C710511F40C94122843
:103F200014F40C94B2276F3C710511F40C943028F2
:103F3000603D710511F40C9461280C9476356D3256
:103F400021E0720711F40C949C2994F46D3D7105E5
:103F500011F40C94F8286C3241E0740711F40C94BD
:103F60000F296C3D710511F00C9476350C94E728FF
:103F70006F3251E0750711F40C947D2A14F40C94FF
:103F8000682A603991E0790711F40C94C92D6139E0
:103F9000714011F00C9476350E94B6980C947635E9
:103FA000603AB3E07B0709F4F9C19CF56935F2E0AA
:103FB0007F0711F40C94D52D94F4663F31E073071C
:103FC00011F40C94D22D14F40C94CF2D673F714052
:103FD00011F00C9476350E94E18B0C9476356E3599
:103FE00082E0780711F40C949D303CF46D357240FA
:103FF00011F40C94E42F0C9476356B38B3E07B0706
:1040000011F40C945A316B39734009F49EC10C942D
:1040100076356231F7E27F0711F40C94DD3124F537
:10402000603137E2730711F40C94983114F00C945A
:104030009B31673E734011F00C9476351092F80373
:104040008091470790914807A0914907B0914A078E
:104050008093F9039093FA03A093FB03B093FC03BE
:104060000E947DCA0C947635643187E2780711F49A
:104070000C945E3214F40C942E326531A7E27A0768
:1040800011F40C948E326A31774211F00C9476352B
:10409000EEE6F4E00C94C53281E080930E0E809140
:1040A0000E0E882311F40C9476350E9437960E94E8
:1040B0005C540E94394D0E94E570F1CF9091C00090
:1040C00095FFFCCF8093C600319684918111F6CF85
:1040D0008091C00085FFFCCF8AE08093C6001092DB
:1040E00004101092031040E050E0BA0180E49EE01A
:1040F0000E9407A58BE1E0E4FEE0DE011596019049
:104100000D928A95E1F780913E0E90913F0E9C832F
:104110008B8385EE92E09A838983BE016F5F7F4F28
:1041200089E193E00E941ABDCE0101960E94595187
:10413000EDEFF5E08491882341F09091C00095FF68
:10414000FCCF8093C6003196F5CF8091C00085FFEB
:10415000FCCF8AE08093C6000C9476350E9466B846
:104160000C94763510920D0E10920E0E10923B0E9E
:104170000C9476350091FD031091FE030C5F1F4FE8
:104180006AE270E0C8010E94ADDB009719F0FC0103
:104190003197108261E0C8010E9434BB0C947635DF
:1041A00080913B0E882329F081E080930D0E1092C0
:1041B0000E0E0E949492609368037093690380933B
:1041C0006A0390936B030C9476350E940DBD0C949A
:1041D000763580913B0E882311F40C9476358091CE
:1041E000B50F882311F40C9459360C9476358091D0
:1041F0003B0E8823A9F1E6E7F2E08491882341F0A1
:104200009091C00095FFFCCF8093C6003196F5CF0A
:104210006091FE0F7091FF0F80910010909101103E
:104220004AE00E946AB6E4E7F2E08491882341F014
:104230009091C00095FFFCCF8093C6003196F5CFDA
:104240006091F60F7091F70F8091F80F9091F90F30
:104250004AE00E946AB68091C00085FFFCCF11C081
:10426000E4E6F2E08491882341F09091C00095FF4C
:10427000FCCF8093C6003196F5CF8091C00085FFBA
:10428000FCCF8AE08093C6006091B50F662311F4DD
:104290000C947635E8E5F2E08491882341F0909122
:1042A000C00095FFFCCF8093C6003196F5CF70E03B
:1042B00080E090E00E94DFB68091C00085FFFCCFD7
:1042C0008AE08093C6000C9476358091FD0390912E
:1042D000FE036AE270E004960E94ADDB8C01892B3C
:1042E000E1F0209118073091190740E6429FC00184
:1042F000439F900D11246EE470E0885E9B4F0E94F6
:10430000ADDB60E270E00E94ADDB01969093FE03AE
:104310008093FD03F801319710828091FD03909105
:10432000FE0360E004960E9434BB0C9476358091C5
:104330003B0E882311F40C9476358091B50F8823B9
:1043400011F40C9470360C9476350091FD031091A5
:10435000FE030C5F1F4F6AE270E0C8010E94ADDBF4
:10436000009719F0FC013197108261E0C8010E94AA
:1043700034BB80913B0E882329F081E080930D0EA1
:1043800010920E0E0E9494926093680370936903DA
:1043900080936A0390936B030C9476358091FD03B0
:1043A0009091FE036AE270E005960E94ADDB8C01FD
:1043B000892BE1F0209118073091190740E6429FC0
:1043C000C001439F900D11246EE470E0885E9B4F06
:1043D0000E94ADDB60E270E00E94ADDB019690933D
:1043E000FE038093FD03F801319710828091FD0355
:1043F0009091FE0321E020930C0E60E005960E9450
:1044000034BB0C9476350E94949260936C03709345
:104410006D0380936E0390936F0300916803109176
:10442000690320916A0330916B03601B710B820B4F
:10443000930B28EE33E040E050E00E9493E3CA0182
:10444000B9012CE330E040E050E00E9493E37F9319
:104450006F933F932F938EEE95E09F938F938E01F2
:104460000F5F1F4F1F930F930E9412E0EFE0F7E0E2
:1044700084910FB6F894DEBF0FBECDBFEFE0F7E03A
:10448000882349F09091C00095FFFCCF8093C6002F
:1044900031968491F5CFF8018191882339F090917C
:1044A000C00095FFFCCF8093C600F6CF8091C0007E
:1044B00085FFFCCF8AE08093C6000C94763583E5B7
:1044C0000E941C89882311F40C9476350E9442893D
:1044D0000E9467D9F62EE72E862F9E2D8C0180E54F
:1044E0000E941C89882331F00F3F110509F010F458
:1044F0000C94E13788E090E0E0E6F2E02191319120
:104500002817390711F40C94763522E0E839F207C0
:10451000A9F78730910519F4F092730A04C097FF48
:1045200002C00C9476356F2D7E2D0E94A8910C94BC
:10453000763588E690E00E94615181110C947635C1
:1045400083E50E941C89882311F40C947635009130
:104550004B070E94428910E00E9467D9F801EE0FD4
:10456000FF1FEE56F54F718360836430714014F481
:104570000C94763584E091E0918380830C947635B9
:1045800083E50E941C89882311F40C9476350E94DF
:1045900042890E9467D97093950A6093940A6337A1
:1045A000710514F40C94763583E790E09093950AA6
:1045B0008093940A0C94763589E690E00E946151CC
:1045C00081110C947635E8EEF5E08491882341F072
:1045D0009091C00095FFFCCF8093C6003196F5CF37
:1045E000E0914B0744E0E49FF0011124E257F54FBE
:1045F000608171818281938141E00E94F1B6E5EE94
:10460000F5E08491882341F09091C00095FFFCCFA4
:104610008093C6003196F5CFE0914B07F0E0EE0FA6
:10462000FF1FEE56F54F60817181072E000C880B3D
:10463000990B0E9447E041E00E94F1B6E1EEF5E0FF
:104640008491882341F09091C00095FFFCCF809326
:10465000C6003196F5CF60918A0A70918B0A8091DD
:104660008C0A90918D0A41E00E94F1B6EEEDF5E0E2
:104670008491882341F09091C00095FFFCCF8093F6
:10468000C6003196F5CF6091940A7091950A072E75
:10469000000C880B990B0E9447E041E00E94F1B6A4
:1046A000EAEDF5E08491882341F09091C00095FFF8
:1046B000FCCF8093C6003196F5CFE0914B07F0E038
:1046C000E856F54F608170E080E090E00E94DFB630
:1046D000E5EDF5E08491882341F09091C00095FFCD
:1046E000FCCF8093C6003196F5CF6091970A70E0B9
:1046F00080E090E00E94DFB68091C00085FFFCCF93
:104700000C94FD328DE690E00E94615181110C9471
:10471000763583E08093960B83E50E941C8988237D
:10472000A9F000914B070E94428910E00E9467D9CE
:10473000F801EE0FFF1FEE56F54F71836083643072
:10474000714024F084E091E0918380830E949492F0
:104750002B013C01E0914B070E2F10E0F801EE0F0A
:10476000FF1FEE56F54F60817181072E000C880BFC
:10477000990B0E9447E0F801EE0FFF1FEE0FFF1F9D
:10478000E257F54F11E020813181428153810E942F
:1047900049DA18160CF010E088248A94982C5401F9
:1047A0006AEC262E65E0362E78ECE72E75E0F72EC3
:1047B0000AE00C947D3884E08093960B83E50E9498
:1047C0001C89882389F00E9442890E9467D97093CE
:1047D000950A6093940A6337710534F083E790E09B
:1047E0009093950A8093940A0E9494924B015C01E5
:1047F00005EC15E071ECE72E75E0F72EEDEBCE2E13
:10480000E5E0DE2EFAE07F2E8091940A9091950AE1
:104810000297BC01990F880B990B0E9447E09B01FE
:10482000AC0160918A0A70918B0A80918C0A9091F8
:104830008D0A0E9441E087FF6FC00E949492DC01C4
:10484000CB0188199909AA09BB09893E9340A105A2
:10485000B10508F458C0E091DF0B24E0E29FF001BD
:104860001124E257F54F6081718182819381F801B3
:104870002491E5ECF5E0222349F03091C00035FFAA
:10488000FCCF2093C60031962491F5CF42E00E94E0
:10489000F1B6F7018491E1ECF5E0882349F09091BD
:1048A000C00095FFFCCF8093C60031968491F5CF70
:1048B0006091DF0B70E080E090E00E94DFB6F601CF
:1048C0008491EDEBF5E0882349F09091C00095FFCD
:1048D000FCCF8093C60031968491F5CF60918A0A0F
:1048E00070918B0A80918C0A90918D0A41E00E9410
:1048F000F1B68091C00085FFFCCF7092C6000E9487
:1049000094924B015C010E9437960E945C540E9475
:10491000394D0E94E57078CF0E94949260934307CE
:104920007093440780934507909346070C9476351F
:1049300083E50E941C89882309F461C00E94428992
:104940006B017C0180914502682F70E080E090E06F
:104950000E9447E09B01AC01C701B6010E94EADB5F
:1049600020E030E048EC52E40E94FFD820E030E044
:10497000A9010E9441E087FD3BC00E9442896B0172
:104980007C0180914502682F70E080E090E00E94F9
:1049900047E09B01AC01C701B6010E94EADB20E0C1
:1049A00030E048EC52E40E94FFD820E030E04FE7CE
:1049B00053E40E9449DA1816ECF00E9442896B0118
:1049C0007C0180914502682F70E080E090E00E94B9
:1049D00047E09B01AC01C701B6010E94EADB20E081
:1049E00030E048EC52E40E94FFD80E946CD903C02A
:1049F00060E001C06FEF6093730A0C94763580918C
:104A00004502FFEF8F9FC001112464E670E00E9411
:104A1000C7D76093730A0C9476350A9A129A0C944D
:104A2000763510922E190C94763581E080932E19EC
:104A30000C94763583E50E941C898823A1F00E949E
:104A4000428920E030E04AE754E40E94EADB0E9419
:104A50006CD960931602709317028093180290939A
:104A600019020C94763588E50E941C8981110C94FA
:104A70002B3989E50E941C8981110C942B398AE518
:104A80000E941C8981110C942B3985E40E941C8999
:104A900081110C942B390E943199409A0E944099BF
:104AA0000C94763583E50E941C89882311F40C94BC
:104AB00076350E94428920E030E04AE754E40E94C3
:104AC000EADB0E946CD960933F07709340078093A4
:104AD0004107909342070C94763551EF852E52E0B2
:104AE000952E00EF1BE067E5A62E6AE0B62E2AE0C1
:104AF00034E13DAF2CAF312CD4018D914D010E949A
:104B00001C89882309F45EC0B3E03B1254C00E94A4
:104B100042892B013C0120E030E040EA51E40E9450
:104B200041E087FF41C0A3019201F80160817181DA
:104B3000828193810E94FFD86B017C019B01AC01B3
:104B40006091430A7091440A8091450A9091460A07
:104B50000E94EADB6093430A7093440A8093450AFB
:104B60009093460AA7019601D5016D917D918D9193
:104B70009C910E94EADBF5016083718382839383B9
:104B8000ACADBDAD6D917D918D919C910E9445E044
:104B9000A70196010E94EADB0E946CD9ECADFDAD45
:104BA0006083718382839383D8014D925D926D926D
:104BB0007C92139707C00E944289F8016083718339
:104BC0008283938333940C5F1F4FF4E0AF0EB11CCC
:104BD0002CAD3DAD2C5F3F4F3DAF2CAF34E03312D9
:104BE0008BCF0C947635E7E1F5E08491882311F4BE
:104BF0000C9476359091C00095FFFCCF8093C60051
:104C00003196F3CF8091FD039091FE036AE270E04C
:104C100005960E94ADDB009711F40C947635FC01EB
:104C2000319710820C947635E4E1F5E08491882385
:104C300041F09091C00095FFFCCF8093C600319663
:104C4000F5CF6091B70B7091B80B8091B90B909133
:104C5000BA0B42E00E94F1B6E1E1F5E084918823CD
:104C600041F09091C00095FFFCCF8093C600319633
:104C7000F5CF6091BB0B7091BC0B8091BD0B9091F7
:104C8000BE0B42E00E94F1B6EEE0F5E0849188238D
:104C900041F09091C00095FFFCCF8093C600319603
:104CA000F5CF6091BF0B7091C00B8091C10B9091BB
:104CB000C20B42E00E94F1B6EBE0F5E0849188235C
:104CC00041F09091C00095FFFCCF8093C6003196D3
:104CD000F5CF6091C30B7091C40B8091C50B90917F
:104CE000C60B42E00E94F1B6E0E0F5E08491882333
:104CF00041F09091C00095FFFCCF8093C6003196A3
:104D0000F5CF0E94A8980E9447E02091F00B3091C7
:104D1000F10B4091F20B5091F30B0E94FFD842E04F
:104D20000E94F1B6EDEFF4E08491882341F0909178
:104D3000C00095FFFCCF8093C6003196F5CF81E08F
:104D40000E94A8980E9447E02091F40B3091F50B47
:104D50004091F60B5091F70B0E94FFD842E00E9461
:104D6000F1B6EAEFF4E08491882341F09091C0001D
:104D700095FFFCCF8093C6003196F5CF82E00E946C
:104D8000A8980E9447E02091F80B3091F90B4091D0
:104D9000FA0B5091FB0B0E94FFD842E00E94F1B643
:104DA0008091C00085FFFCCF8AE08093C6000C9400
:104DB0007635109215020C947635E1EEF4E084918C
:104DC000882341F09091C00095FFFCCF8093C600EE
:104DD0003196F5CF8091C00085FFFCCF8AE08093AB
:104DE000C600E9EDF4E08491882341F09091C00081
:104DF00095FFFCCF8093C6003196F5CF009B03C092
:104E0000EAECF4E00AC0EFECF4E007C09091C000D7
:104E100095FFFCCF8093C600319684918111F6CF27
:104E2000E2ECF4E08491882341F09091C00095FF7A
:104E3000FCCF8093C6003196F5CF049B03C0E3EB13
:104E4000F4E00AC0E8EBF4E007C09091C00095FFE1
:104E5000FCCF8093C600319684918111F6CFEBEAA6
:104E6000F4E08491882341F09091C00095FFFCCF3D
:104E70008093C6003196F5CF079B03C0ECE9F4E0C0
:104E80000AC0E1EAF4E007C09091C00095FFFCCFB2
:104E90008093C600319684918111F6CF0C947635BB
:104EA0003AE1E32E34E1F32E01EF12E044E0D42E98
:104EB000D00ED8018D918D010E941C89882349F064
:104EC0000E9442890E946CD9F701608371838283BA
:104ED0009383F4E0EF0EF11CD012EBCF0E947FC75A
:104EE0000C94763597E5E92E9AE0F92E01EF12E061
:104EF00024E0D22ED00ED8018D918D010E941C8904
:104F0000882339F00E944289F7016083718382838C
:104F10009383F4E0EF0EF11CD012EDCF0C947635B4
:104F200083E50E941C89882351F00E944289609386
:104F30004F0A7093500A8093510A9093520A84E565
:104F40000E941C89882311F40C9476350E944289B2
:104F50006093530A7093540A8093550A9093560AAB
:104F60000C94763583E50E941C89882351F00E94B9
:104F7000428960936B0A70936C0A80936D0A9093D8
:104F80006E0A84E50E941C89882351F00E944289A0
:104F900060936F0A7093700A8093710A9093720AFB
:104FA00082E40E941C89882361F00E9442890E9449
:104FB0006CD96093670A7093680A8093690A90932A
:104FC0006A0A88E50E941C89882351F00E94428960
:104FD00060934B0A70934C0A80934D0A90934E0A4B
:104FE0008AE50E941C89882351F00E9442896093BF
:104FF000470A7093480A8093490A90934A0A85E4C5
:105000000E941C89882311F40C9476350E944289F1
:105010006093430A7093440A8093450A9093460A2A
:105020000C9476351CE1E12E1AE0F12E01EF12E02E
:1050300083E0D82ED00ED8018D918D010E941C895D
:10504000882339F00E944289F7016083718382834B
:105050009383F4E0EF0EF11CD012EDCF0C94763573
:1050600083E50E941C89882351F00E944289609345
:10507000250270932602809327029093280286E4EB
:105080000E941C89882351F00E944289609321026A
:105090007093220280932302909324028AE50E9457
:1050A0001C89882311F40C9476350E944289609300
:1050B00056027093570280935802909359020C94B1
:1050C000763583E50E941C89882351F00E9442892D
:1050D00060932119709322198093231990932419B6
:1050E00086E40E941C89882311F40C9476350E9472
:1050F00042896093520270935302809354029093BA
:1051000055020C94763583E50E941C89882311F49E
:105110000C9476350E9442890E9467D96115710509
:1051200051F06130710569F481E080932519109286
:105130002A0A0C9476351092251910922A0A0C949A
:105140007635EFE0F7E08491882341F09091C0003C
:1051500095FFFCCF8093C6003196F5CFE9E8F4E0E7
:105160008491882341F09091C00095FFFCCF8093FB
:10517000C6003196F5CF809118079091190720E667
:10518000289FF001299FF00D1124E85EFB4F8191CB
:10519000882339F09091C00095FFFCCF8093C60022
:1051A000F6CFE7E8F4E08491882341F09091C000C5
:1051B00095FFFCCF8093C6003196F5CF8091C0005B
:1051C00085FFFCCF8AE08093C6000C94763583E59A
:1051D0000E941C89882311F40C9476350E94428920
:1051E0000E9467D97093200260931F020C94763559
:1051F00083E50E941C89882311F40C947635009174
:10520000DF0B10E00E944289000F111F075D1D4F48
:105210000E9467D9D8016D937C930C94763583E511
:105220000E941C89882331F00E9442890E946CD917
:105230007B0103C0AEE6EA2EF12C80E50E941C89BA
:10524000882311F40C9444390E9442890E946CD93D
:105250008B01E114F10409F443C0970140E050E0F0
:1052600060E271EA87E090E00E94DAD769017A0192
:10527000F22FED2DA701013ABFE01B0710F000EA65
:105280001FE09801A4EFB1E00E94BFE32F2F3E2F53
:105290000E9493E3B601CC0CDD1CCC0CDD1CE5E0D8
:1052A000CE1AD10880E090E0DC0182179307A407B2
:1052B000B50711F40C9476355B9A6230710518F0DD
:1052C000F6013197F1F75B986230710518F0F6013D
:1052D0003197F1F70196A11DB11DE7CF08EE13E05C
:1052E0006801E12CF12C0E946F924B015C01C1140A
:1052F000D104E104F10411F40C9476350E946F920C
:10530000DC01CB0188199909AA09BB09883E9340A1
:10531000A105B10560F3F1E0CF1AD108E108F10869
:1053200028EE820E23E0921EA11CB11CC114D104F0
:10533000E104F10419F7DBCF80E50E941C89882382
:1053400051F00E94428960933F0270934002809323
:1053500041029093420289E40E941C89882381F0D3
:105360000E9442892DEB37E346E05DE30E94EADBD1
:105370006093090270930A0280930B0290930C02CF
:1053800084E40E941C89882381F00E9442892DEBCD
:1053900037E346E05DE30E94FFD860933B027093E1
:1053A0003C0280933D0290933E0283E40E941C895C
:1053B000882351F00E944289609300027093010299
:1053C00080930202909303020E948398E4E8F4E041
:1053D0008491882341F09091C00095FFFCCF809389
:1053E000C6003196F5CFE0E8F4E08491882341F0DF
:1053F0009091C00095FFFCCF8093C6003196F5CF09
:1054000060913F027091400280914102909142026E
:1054100042E00E94F1B6ECE7F4E08491882341F089
:105420009091C00095FFFCCF8093C6003196F5CFD8
:105430002DEB37E346E05DE36091090270910A02CB
:1054400080910B0290910C020E94FFD842E00E94D2
:10545000F1B6E8E7F4E08491882341F09091C00030
:1054600095FFFCCF8093C6003196F5CF2DEB37E347
:1054700046E05DE360913B0270913C0280913D0209
:1054800090913E020E94EADB42E00E94F1B6E4E71E
:10549000F4E08491882341F09091C00095FFFCCF07
:1054A0008093C6003196F5CF6091000270910102A1
:1054B000809102029091030242E00E94F1B6809135
:1054C000C00085FFFCCF8AE08093C6000C9476353F
:1054D00083E50E941C89882319F00E94428903C039
:1054E00060E070E0CB0160932B0270932C028093FC
:1054F0002D0290932E020C94763585E40E941C892F
:10550000882341F00E9442890E9467D98B0177FF6E
:1055100003C011C000E010E028961FAE289729961E
:105520001FAE299746E12A964FAF2A9753E42B9650
:105530005FAF2B970EC028961FAE289729961FAEF7
:1055400029978CE82A968FAF2A9792E42B969FAFE3
:105550002B9783E50E941C89882371F00E94428961
:1055600028966FAF289729967FAF29972A968FAFF5
:105570002A972B969FAF2B9783E40E941C89882340
:1055800049F00E9442890E9467D9A7967FAF6EAF0B
:10559000A79706C0A5E0B0E0A796BFAFAEAFA797AC
:1055A0000E94949227966CAF7DAF8EAF9FAF2797E6
:1055B00002301105B4F0E2ECF3E08491882341F06D
:1055C0009091C00095FFFCCF8093C6003196F5CF37
:1055D0008091C00085FFFCCF8AE08093C6000C94C8
:1055E0007635EFEAF3E08491882341F09091C00092
:1055F00095FFFCCF8093C6003196F5CF8091C00017
:1056000085FFFCCF8AE08093C6000E94EA928FE774
:1056100017FF64C08093970A27962CAD3DAD4EAD21
:105620005FAD279765962CAF3DAF4EAF5FAF6597E7
:10563000AB962CAF3DAF4EAF5FAFAB972C961FAE86
:105640002C9730E466963FAF66974CE167964FAF74
:10565000679756E468965FAF689769961FAE69973B
:105660006A961FAE6A976B961FAE6B976C961FAECD
:105670006C978FE790E0A0E0B0E023968CAF9DAFF1
:10568000AEAFBFAF23977FE7472E512C612C712C13
:10569000A3961CAE1DAE1EAE1FAEA39791E06D96F5
:1056A0009FAF6D9761961FAE1EAE61971CAE212C09
:1056B000312C1EAED801A856B54FA596BFAFAEAFE0
:1056C000A597C801880F991F880F991FFC01E25701
:1056D000F54F6F96FFAFEEAF6F9709C0F801E85630
:1056E000F54F808399CF0E94394D0E94E5708091DB
:1056F000960A882309F45EC10E94159617FF0BC015
:10570000F0918A0AFCAF20908B0A30908C0A20918D
:105710008D0A2EAF0EC06F96AEADBFAD6F97BC9128
:10572000BCAF6F96EEADFFAD6F9721803280F381F5
:10573000FEAF2CAD322D432D5EAD69966FAD6997EE
:105740006A967FAD6A976B968FAD6B976C969FAD9F
:105750006C970E9449DA181674F02CAD69962FAF39
:1057600069976A962FAE6A976B963FAE6B973EAD80
:105770006C963FAF6C972CAD322D432D5EAD2C96C1
:105780006FAD2C9766967FAD669767968FAD6797DE
:1057900068969FAD68970E9441E087FD0EC04CADB2
:1057A0002C964FAF2C9766962FAE669767963FAEB6
:1057B00067975EAD68965FAF68976D968FAD6D9792
:1057C000882309F475C028962FAD289729963FADF8
:1057D00029972A964FAD2A972B965FAD2B976CADE4
:1057E000722D832D9EAD0E9449DA18160CF0E2C08E
:1057F0000E949492DC01CB0127962CAD3DAD4EADBD
:105800005FAD2797821B930BA40BB50B893893418F
:10581000A105B10508F4CEC0D301C20123962CAD79
:105820003DAD4EAD5FAD2397821B930BA40BB50B23
:10583000B595A7959795879517FF03C08093970A0D
:1058400005C0A596EEADFFADA59780830E9494920A
:1058500065966CAF7DAF8EAF9FAF65979B01AC0136
:1058600027968CAD9DADAEADBFAD2797281B390BEC
:105870004A0B5B0BA3962CAF3DAF4EAF5FAFA39728
:1058800028969FAD289769969FAF69972996AFADE7
:1058900029976A96AFAF6A972A96BFAD2A976B96FB
:1058A000BFAF6B972B96EFAD2B976C96EFAF6C97C6
:1058B00028962FAD289729963FAD29972A964FAD68
:1058C0002A972B965FAD2B976CAD722D832D9EADD5
:1058D0000E9441E087FD02C00C94343B0E949492E8
:1058E000DC01CB0165962CAD3DAD4EAD5FAD65974E
:1058F000821B930BA40BB50B89389341A105B1050D
:1059000010F40C94343B0E94949227966CAF7DAFB8
:105910008EAF9FAF2797DC01CB0165962CAD3DADD7
:105920004EAD5FAD6597821B930BA40BB50B6196D3
:105930004EAD5FAD61971416150614F40C945B39E7
:1059400023968CAD9DADAEADBFAD2397840D951D57
:10595000A61DB71DB595A7959795879517FD02C00C
:105960000C942D3B8093970A61962EAD3FAD6197C5
:105970002F5F3F4F61963FAF2EAF619728963FADA7
:1059800028972C963FAF2C9729964FAD299766966E
:105990004FAF66972A965FAD2A9767965FAF679776
:1059A0002B968FAD2B9768968FAF689791E06D9689
:1059B0009FAF6D9720E030E040EA51E428966FAD4C
:1059C000289729967FAD29972A968FAD2A972B96EF
:1059D0009FAD2B970E9423D89B01AC016CAD722D1B
:1059E000832D9EAD0E9449DA1816B4F4EFE3F3E07C
:1059F0008491882341F09091C00095FFFCCF809363
:105A0000C6003196F5CF8091C00085FFFCCF8AE0BB
:105A10008093C6000C9476350E949492DC01CB01F1
:105A2000AB962CAD3DAD4EAD5FADAB97821B930BEE
:105A3000A40BB50B813D9740A105B10508F44EC0FC
:105A400017FF10C0E090970AF12CE9E3F3E084918E
:105A50008823D9F09091C00095FFFCCF8093C600B9
:105A60003196F5CFA596AEADBFADA597EC90F12CD4
:105A7000E3E3F3E08491882341F09091C00095FF27
:105A8000FCCF8093C6003196F5CF42E06CAD722D0D
:105A9000832D9EAD0E94F1B6EFE2F3E0849188235E
:105AA00041F09091C00095FFFCCF8093C6003196E5
:105AB000F5CFB701FF0C880B990B0E94DFB68091E0
:105AC000C00085FFFCCF8AE08093C6000E949492BC
:105AD000AB966CAF7DAF8EAF9FAFAB970E949492A9
